{
  "contractName": "CancerPatientData",
  "abi": [
    {
      "inputs": [],
      "stateMutability": "nonpayable",
      "type": "constructor"
    },
    {
      "anonymous": false,
      "inputs": [
        {
          "indexed": false,
          "internalType": "string",
          "name": "name",
          "type": "string"
        },
        {
          "indexed": false,
          "internalType": "uint256",
          "name": "age",
          "type": "uint256"
        }
      ],
      "name": "PatientRegistered",
      "type": "event"
    },
    {
      "anonymous": false,
      "inputs": [
        {
          "indexed": false,
          "internalType": "uint256",
          "name": "patientId",
          "type": "uint256"
        },
        {
          "indexed": false,
          "internalType": "string",
          "name": "name",
          "type": "string"
        },
        {
          "indexed": false,
          "internalType": "uint256",
          "name": "age",
          "type": "uint256"
        }
      ],
      "name": "PatientUpdated",
      "type": "event"
    },
    {
      "inputs": [],
      "name": "admin",
      "outputs": [
        {
          "internalType": "address",
          "name": "",
          "type": "address"
        }
      ],
      "stateMutability": "view",
      "type": "function",
      "constant": true
    },
    {
      "inputs": [
        {
          "internalType": "uint256",
          "name": "",
          "type": "uint256"
        }
      ],
      "name": "patients",
      "outputs": [
        {
          "internalType": "string",
          "name": "name",
          "type": "string"
        },
        {
          "internalType": "uint256",
          "name": "age",
          "type": "uint256"
        }
      ],
      "stateMutability": "view",
      "type": "function",
      "constant": true
    },
    {
      "inputs": [
        {
          "internalType": "address",
          "name": "",
          "type": "address"
        }
      ],
      "name": "registeredPatients",
      "outputs": [
        {
          "internalType": "bool",
          "name": "",
          "type": "bool"
        }
      ],
      "stateMutability": "view",
      "type": "function",
      "constant": true
    },
    {
      "inputs": [
        {
          "internalType": "address",
          "name": "_patientAddress",
          "type": "address"
        },
        {
          "internalType": "string",
          "name": "_name",
          "type": "string"
        },
        {
          "internalType": "uint256",
          "name": "_age",
          "type": "uint256"
        }
      ],
      "name": "registerPatient",
      "outputs": [],
      "stateMutability": "nonpayable",
      "type": "function"
    },
    {
      "inputs": [
        {
          "internalType": "uint256",
          "name": "_patientId",
          "type": "uint256"
        },
        {
          "internalType": "string",
          "name": "_name",
          "type": "string"
        },
        {
          "internalType": "uint256",
          "name": "_age",
          "type": "uint256"
        }
      ],
      "name": "updatePatient",
      "outputs": [],
      "stateMutability": "nonpayable",
      "type": "function"
    },
    {
      "inputs": [
        {
          "internalType": "uint256",
          "name": "_patientId",
          "type": "uint256"
        }
      ],
      "name": "getPatient",
      "outputs": [
        {
          "internalType": "string",
          "name": "name",
          "type": "string"
        },
        {
          "internalType": "uint256",
          "name": "age",
          "type": "uint256"
        }
      ],
      "stateMutability": "view",
      "type": "function",
      "constant": true
    }
  ],
  "bytecode": "0x608060405234801561001057600080fd5b50336000806101000a81548173ffffffffffffffffffffffffffffffffffffffff021916908373ffffffffffffffffffffffffffffffffffffffff16021790555061123b806100606000396000f3fe608060405234801561001057600080fd5b50600436106100625760003560e01c806320528690146100675780637d3a6796146100835780638a4429f3146100b457806393119a83146100d05780639cdaaad814610101578063f851a44014610131575b600080fd5b610081600480360381019061007c919061099e565b61014f565b005b61009d60048036038101906100989190610a0d565b610348565b6040516100ab929190610ac8565b60405180910390f35b6100ce60048036038101906100c99190610b56565b610474565b005b6100ea60048036038101906100e59190610a0d565b61070e565b6040516100f8929190610ac8565b60405180910390f35b61011b60048036038101906101169190610bc5565b6107ca565b6040516101289190610c0d565b60405180910390f35b6101396107ea565b6040516101469190610c37565b60405180910390f35b60008054906101000a900473ffffffffffffffffffffffffffffffffffffffff1673ffffffffffffffffffffffffffffffffffffffff163373ffffffffffffffffffffffffffffffffffffffff16146101dd576040517f08c379a00000000000000000000000000000000000000000000000000000000081526004016101d490610cc4565b60405180910390fd5b6001805490508310610224576040517f08c379a000000000000000000000000000000000000000000000000000000000815260040161021b90610d30565b60405180910390fd5b6000825111610268576040517f08c379a000000000000000000000000000000000000000000000000000000000815260040161025f90610d9c565b60405180910390fd5b600081116102ab576040517f08c379a00000000000000000000000000000000000000000000000000000000081526004016102a290610e2e565b60405180910390fd5b81600184815481106102c0576102bf610e4e565b5b906000526020600020906002020160000190816102dd9190611089565b5080600184815481106102f3576102f2610e4e565b5b9060005260206000209060020201600101819055507f7a23d4ea641a02a4823233bde9bcc5d021d2b484bf7b00c00e380a421daeb53783838360405161033b9392919061115b565b60405180910390a1505050565b606060006001805490508310610393576040517f08c379a000000000000000000000000000000000000000000000000000000000815260040161038a90610d30565b60405180910390fd5b6000600184815481106103a9576103a8610e4e565b5b90600052602060002090600202016040518060400160405290816000820180546103d290610eac565b80601f01602080910402602001604051908101604052809291908181526020018280546103fe90610eac565b801561044b5780601f106104205761010080835404028352916020019161044b565b820191906000526020600020905b81548152906001019060200180831161042e57829003601f168201915b505050505081526020016001820154815250509050806000015181602001519250925050915091565b60008054906101000a900473ffffffffffffffffffffffffffffffffffffffff1673ffffffffffffffffffffffffffffffffffffffff163373ffffffffffffffffffffffffffffffffffffffff1614610502576040517f08c379a00000000000000000000000000000000000000000000000000000000081526004016104f990610cc4565b60405180910390fd5b600260008473ffffffffffffffffffffffffffffffffffffffff1673ffffffffffffffffffffffffffffffffffffffff16815260200190815260200160002060009054906101000a900460ff161561058f576040517f08c379a0000000000000000000000000000000000000000000000000000000008152600401610586906111e5565b60405180910390fd5b60008251116105d3576040517f08c379a00000000000000000000000000000000000000000000000000000000081526004016105ca90610d9c565b60405180910390fd5b60008111610616576040517f08c379a000000000000000000000000000000000000000000000000000000000815260040161060d90610e2e565b60405180910390fd5b60016040518060400160405280848152602001838152509080600181540180825580915050600190039060005260206000209060020201600090919091909150600082015181600001908161066b9190611089565b506020820151816001015550506001600260008573ffffffffffffffffffffffffffffffffffffffff1673ffffffffffffffffffffffffffffffffffffffff16815260200190815260200160002060006101000a81548160ff0219169083151502179055507f155861c6dac05e975ba403b7ee6d4cee6a17f0b715a1deea110fc2bcfa33f5048282604051610701929190610ac8565b60405180910390a1505050565b6001818154811061071e57600080fd5b906000526020600020906002020160009150905080600001805461074190610eac565b80601f016020809104026020016040519081016040528092919081815260200182805461076d90610eac565b80156107ba5780601f1061078f576101008083540402835291602001916107ba565b820191906000526020600020905b81548152906001019060200180831161079d57829003601f168201915b5050505050908060010154905082565b60026020528060005260406000206000915054906101000a900460ff1681565b60008054906101000a900473ffffffffffffffffffffffffffffffffffffffff1681565b6000604051905090565b600080fd5b600080fd5b6000819050919050565b61083581610822565b811461084057600080fd5b50565b6000813590506108528161082c565b92915050565b600080fd5b600080fd5b6000601f19601f8301169050919050565b7f4e487b7100000000000000000000000000000000000000000000000000000000600052604160045260246000fd5b6108ab82610862565b810181811067ffffffffffffffff821117156108ca576108c9610873565b5b80604052505050565b60006108dd61080e565b90506108e982826108a2565b919050565b600067ffffffffffffffff82111561090957610908610873565b5b61091282610862565b9050602081019050919050565b82818337600083830152505050565b600061094161093c846108ee565b6108d3565b90508281526020810184848401111561095d5761095c61085d565b5b61096884828561091f565b509392505050565b600082601f83011261098557610984610858565b5b813561099584826020860161092e565b91505092915050565b6000806000606084860312156109b7576109b6610818565b5b60006109c586828701610843565b935050602084013567ffffffffffffffff8111156109e6576109e561081d565b5b6109f286828701610970565b9250506040610a0386828701610843565b9150509250925092565b600060208284031215610a2357610a22610818565b5b6000610a3184828501610843565b91505092915050565b600081519050919050565b600082825260208201905092915050565b60005b83811015610a74578082015181840152602081019050610a59565b60008484015250505050565b6000610a8b82610a3a565b610a958185610a45565b9350610aa5818560208601610a56565b610aae81610862565b840191505092915050565b610ac281610822565b82525050565b60006040820190508181036000830152610ae28185610a80565b9050610af16020830184610ab9565b9392505050565b600073ffffffffffffffffffffffffffffffffffffffff82169050919050565b6000610b2382610af8565b9050919050565b610b3381610b18565b8114610b3e57600080fd5b50565b600081359050610b5081610b2a565b92915050565b600080600060608486031215610b6f57610b6e610818565b5b6000610b7d86828701610b41565b935050602084013567ffffffffffffffff811115610b9e57610b9d61081d565b5b610baa86828701610970565b9250506040610bbb86828701610843565b9150509250925092565b600060208284031215610bdb57610bda610818565b5b6000610be984828501610b41565b91505092915050565b60008115159050919050565b610c0781610bf2565b82525050565b6000602082019050610c226000830184610bfe565b92915050565b610c3181610b18565b82525050565b6000602082019050610c4c6000830184610c28565b92915050565b7f4f6e6c792061646d696e2063616e20706572666f726d2074686973206163746960008201527f6f6e2e0000000000000000000000000000000000000000000000000000000000602082015250565b6000610cae602383610a45565b9150610cb982610c52565b604082019050919050565b60006020820190508181036000830152610cdd81610ca1565b9050919050565b7f496e76616c69642070617469656e742049442e00000000000000000000000000600082015250565b6000610d1a601383610a45565b9150610d2582610ce4565b602082019050919050565b60006020820190508181036000830152610d4981610d0d565b9050919050565b7f50617469656e74206e616d652063616e6e6f7420626520656d7074792e000000600082015250565b6000610d86601d83610a45565b9150610d9182610d50565b602082019050919050565b60006020820190508181036000830152610db581610d79565b9050919050565b7f50617469656e7420616765206d757374206265206120706f736974697665206e60008201527f756d6265722e0000000000000000000000000000000000000000000000000000602082015250565b6000610e18602683610a45565b9150610e2382610dbc565b604082019050919050565b60006020820190508181036000830152610e4781610e0b565b9050919050565b7f4e487b7100000000000000000000000000000000000000000000000000000000600052603260045260246000fd5b7f4e487b7100000000000000000000000000000000000000000000000000000000600052602260045260246000fd5b60006002820490506001821680610ec457607f821691505b602082108103610ed757610ed6610e7d565b5b50919050565b60008190508160005260206000209050919050565b60006020601f8301049050919050565b600082821b905092915050565b600060088302610f3f7fffffffffffffffffffffffffffffffffffffffffffffffffffffffffffffffff82610f02565b610f498683610f02565b95508019841693508086168417925050509392505050565b6000819050919050565b6000610f86610f81610f7c84610822565b610f61565b610822565b9050919050565b6000819050919050565b610fa083610f6b565b610fb4610fac82610f8d565b848454610f0f565b825550505050565b600090565b610fc9610fbc565b610fd4818484610f97565b505050565b5b81811015610ff857610fed600082610fc1565b600181019050610fda565b5050565b601f82111561103d5761100e81610edd565b61101784610ef2565b81016020851015611026578190505b61103a61103285610ef2565b830182610fd9565b50505b505050565b600082821c905092915050565b600061106060001984600802611042565b1980831691505092915050565b6000611079838361104f565b9150826002028217905092915050565b61109282610a3a565b67ffffffffffffffff8111156110ab576110aa610873565b5b6110b58254610eac565b6110c0828285610ffc565b600060209050601f8311600181146110f357600084156110e1578287015190505b6110eb858261106d565b865550611153565b601f19841661110186610edd565b60005b8281101561112957848901518255600182019150602085019450602081019050611104565b868310156111465784890151611142601f89168261104f565b8355505b6001600288020188555050505b505050505050565b60006060820190506111706000830186610ab9565b81810360208301526111828185610a80565b90506111916040830184610ab9565b949350505050565b7f50617469656e7420616c726561647920726567697374657265642e0000000000600082015250565b60006111cf601b83610a45565b91506111da82611199565b602082019050919050565b600060208201905081810360008301526111fe816111c2565b905091905056fea2646970667358221220801ad4bff55e0c22349d12f70174885cc459f8b94c9585654035f5f943c5ec9164736f6c63430008130033",
  "immutableReferences": {},
  "source": "// SPDX-License-Identifier: MIT\r\npragma solidity 0.8.19;\r\n\r\ncontract CancerPatientData {\r\n\r\n    address public admin;\r\n\r\n    constructor() {\r\n        admin = msg.sender; // The deployer of the contract becomes the admin\r\n    }\r\n\r\n    modifier onlyAdmin() {\r\n        require(msg.sender == admin, \"Only admin can perform this action.\");\r\n        _;\r\n    }\r\n\r\n    struct Patient {\r\n        string name;\r\n        uint256 age;\r\n    }\r\n\r\n    Patient[] public patients;\r\n\r\n    mapping(address => bool) public registeredPatients;\r\n\r\n    event PatientRegistered(string name, uint256 age);\r\n    event PatientUpdated(uint256 patientId, string name, uint256 age);\r\n\r\n    function registerPatient(address _patientAddress, string memory _name, uint256 _age) public onlyAdmin {\r\n        require(!registeredPatients[_patientAddress], \"Patient already registered.\");\r\n        require(bytes(_name).length > 0, \"Patient name cannot be empty.\");\r\n        require(_age > 0, \"Patient age must be a positive number.\"); // Ensuring age is positive\r\n        patients.push(Patient(_name, _age));\r\n        registeredPatients[_patientAddress] = true;\r\n        emit PatientRegistered(_name, _age);\r\n    }\r\n\r\n    function updatePatient(uint256 _patientId, string memory _name, uint256 _age) public onlyAdmin {\r\n        require(_patientId < patients.length, \"Invalid patient ID.\");\r\n        require(bytes(_name).length > 0, \"Patient name cannot be empty.\");\r\n        require(_age > 0, \"Patient age must be a positive number.\"); // Ensuring age is positive\r\n        patients[_patientId].name = _name;\r\n        patients[_patientId].age = _age;\r\n        emit PatientUpdated(_patientId, _name, _age);\r\n    }\r\n\r\n    function getPatient(uint256 _patientId) public view returns (string memory name, uint256 age) {\r\n        require(_patientId < patients.length, \"Invalid patient ID.\");\r\n        Patient memory patient = patients[_patientId];\r\n        return (patient.name, patient.age);\r\n    }\r\n}\r\n",
  "sourcePath": "C:\\Users\\ADMIN 2023\\cancer_patient_blockchain\\contracts\\CancerPatient.sol",
  "compiler": {
    "name": "solc",
    "version": "0.8.19+commit.7dd6d404.Emscripten.clang"
  },
  "schemaVersion": "3.4.16",
  "updatedAt": "2024-07-01T16:28:40.739Z",
  "networkType": "ethereum",
  "devdoc": {
    "kind": "dev",
    "methods": {},
    "version": 1
  },
  "userdoc": {
    "kind": "user",
    "methods": {},
    "version": 1
  }
}