{
  "contractName": "CancerPatientData",
  "abi": [
    {
      "inputs": [],
      "stateMutability": "nonpayable",
      "type": "constructor"
    },
    {
      "anonymous": false,
      "inputs": [
        {
          "indexed": false,
          "internalType": "string",
          "name": "name",
          "type": "string"
        },
        {
          "indexed": false,
          "internalType": "uint256",
          "name": "age",
          "type": "uint256"
        }
      ],
      "name": "PatientRegistered",
      "type": "event"
    },
    {
      "anonymous": false,
      "inputs": [
        {
          "indexed": false,
          "internalType": "uint256",
          "name": "patientId",
          "type": "uint256"
        },
        {
          "indexed": false,
          "internalType": "string",
          "name": "name",
          "type": "string"
        },
        {
          "indexed": false,
          "internalType": "uint256",
          "name": "age",
          "type": "uint256"
        }
      ],
      "name": "PatientUpdated",
      "type": "event"
    },
    {
      "inputs": [],
      "name": "admin",
      "outputs": [
        {
          "internalType": "address",
          "name": "",
          "type": "address"
        }
      ],
      "stateMutability": "view",
      "type": "function"
    },
    {
      "inputs": [
        {
          "internalType": "uint256",
          "name": "",
          "type": "uint256"
        }
      ],
      "name": "patients",
      "outputs": [
        {
          "internalType": "string",
          "name": "name",
          "type": "string"
        },
        {
          "internalType": "uint256",
          "name": "age",
          "type": "uint256"
        }
      ],
      "stateMutability": "view",
      "type": "function"
    },
    {
      "inputs": [
        {
          "internalType": "address",
          "name": "",
          "type": "address"
        }
      ],
      "name": "registeredPatients",
      "outputs": [
        {
          "internalType": "bool",
          "name": "",
          "type": "bool"
        }
      ],
      "stateMutability": "view",
      "type": "function"
    },
    {
      "inputs": [
        {
          "internalType": "address",
          "name": "_patientAddress",
          "type": "address"
        },
        {
          "internalType": "string",
          "name": "_name",
          "type": "string"
        },
        {
          "internalType": "uint256",
          "name": "_age",
          "type": "uint256"
        }
      ],
      "name": "registerPatient",
      "outputs": [],
      "stateMutability": "nonpayable",
      "type": "function"
    },
    {
      "inputs": [
        {
          "internalType": "uint256",
          "name": "_patientId",
          "type": "uint256"
        },
        {
          "internalType": "string",
          "name": "_name",
          "type": "string"
        },
        {
          "internalType": "uint256",
          "name": "_age",
          "type": "uint256"
        }
      ],
      "name": "updatePatient",
      "outputs": [],
      "stateMutability": "nonpayable",
      "type": "function"
    },
    {
      "inputs": [
        {
          "internalType": "uint256",
          "name": "_patientId",
          "type": "uint256"
        }
      ],
      "name": "getPatient",
      "outputs": [
        {
          "internalType": "string",
          "name": "name",
          "type": "string"
        },
        {
          "internalType": "uint256",
          "name": "age",
          "type": "uint256"
        }
      ],
      "stateMutability": "view",
      "type": "function"
    }
  ],
  "bytecode": "0x608060405234801561000f575f80fd5b50335f806101000a81548173ffffffffffffffffffffffffffffffffffffffff021916908373ffffffffffffffffffffffffffffffffffffffff160217905550610fb88061005c5f395ff3fe608060405234801561000f575f80fd5b5060043610610060575f3560e01c806320528690146100645780637d3a6796146100805780638a4429f3146100b157806393119a83146100cd5780639cdaaad8146100fe578063f851a4401461012e575b5f80fd5b61007e60048036038101906100799190610858565b61014c565b005b61009a600480360381019061009591906108c4565b6102b8565b6040516100a8929190610978565b60405180910390f35b6100cb60048036038101906100c69190610a00565b6103dc565b005b6100e760048036038101906100e291906108c4565b6105e3565b6040516100f5929190610978565b60405180910390f35b61011860048036038101906101139190610a6c565b610698565b6040516101259190610ab1565b60405180910390f35b6101366106b5565b6040516101439190610ad9565b60405180910390f35b5f8054906101000a900473ffffffffffffffffffffffffffffffffffffffff1673ffffffffffffffffffffffffffffffffffffffff163373ffffffffffffffffffffffffffffffffffffffff16146101d9576040517f08c379a00000000000000000000000000000000000000000000000000000000081526004016101d090610b62565b60405180910390fd5b6001805490508310610220576040517f08c379a000000000000000000000000000000000000000000000000000000000815260040161021790610bca565b60405180910390fd5b816001848154811061023557610234610be8565b5b905f5260205f2090600202015f01908161024f9190610e0f565b50806001848154811061026557610264610be8565b5b905f5260205f209060020201600101819055507f7a23d4ea641a02a4823233bde9bcc5d021d2b484bf7b00c00e380a421daeb5378383836040516102ab93929190610ede565b60405180910390a1505050565b60605f6001805490508310610302576040517f08c379a00000000000000000000000000000000000000000000000000000000081526004016102f990610bca565b60405180910390fd5b5f6001848154811061031757610316610be8565b5b905f5260205f2090600202016040518060400160405290815f8201805461033d90610c42565b80601f016020809104026020016040519081016040528092919081815260200182805461036990610c42565b80156103b45780601f1061038b576101008083540402835291602001916103b4565b820191905f5260205f20905b81548152906001019060200180831161039757829003601f168201915b505050505081526020016001820154815250509050805f015181602001519250925050915091565b5f8054906101000a900473ffffffffffffffffffffffffffffffffffffffff1673ffffffffffffffffffffffffffffffffffffffff163373ffffffffffffffffffffffffffffffffffffffff1614610469576040517f08c379a000000000000000000000000000000000000000000000000000000000815260040161046090610b62565b60405180910390fd5b60025f8473ffffffffffffffffffffffffffffffffffffffff1673ffffffffffffffffffffffffffffffffffffffff1681526020019081526020015f205f9054906101000a900460ff16156104f3576040517f08c379a00000000000000000000000000000000000000000000000000000000081526004016104ea90610f64565b60405180910390fd5b6001604051806040016040528084815260200183815250908060018154018082558091505060019003905f5260205f2090600202015f909190919091505f820151815f0190816105439190610e0f565b50602082015181600101555050600160025f8573ffffffffffffffffffffffffffffffffffffffff1673ffffffffffffffffffffffffffffffffffffffff1681526020019081526020015f205f6101000a81548160ff0219169083151502179055507f155861c6dac05e975ba403b7ee6d4cee6a17f0b715a1deea110fc2bcfa33f50482826040516105d6929190610978565b60405180910390a1505050565b600181815481106105f2575f80fd5b905f5260205f2090600202015f91509050805f01805461061190610c42565b80601f016020809104026020016040519081016040528092919081815260200182805461063d90610c42565b80156106885780601f1061065f57610100808354040283529160200191610688565b820191905f5260205f20905b81548152906001019060200180831161066b57829003601f168201915b5050505050908060010154905082565b6002602052805f5260405f205f915054906101000a900460ff1681565b5f8054906101000a900473ffffffffffffffffffffffffffffffffffffffff1681565b5f604051905090565b5f80fd5b5f80fd5b5f819050919050565b6106fb816106e9565b8114610705575f80fd5b50565b5f81359050610716816106f2565b92915050565b5f80fd5b5f80fd5b5f601f19601f8301169050919050565b7f4e487b71000000000000000000000000000000000000000000000000000000005f52604160045260245ffd5b61076a82610724565b810181811067ffffffffffffffff8211171561078957610788610734565b5b80604052505050565b5f61079b6106d8565b90506107a78282610761565b919050565b5f67ffffffffffffffff8211156107c6576107c5610734565b5b6107cf82610724565b9050602081019050919050565b828183375f83830152505050565b5f6107fc6107f7846107ac565b610792565b90508281526020810184848401111561081857610817610720565b5b6108238482856107dc565b509392505050565b5f82601f83011261083f5761083e61071c565b5b813561084f8482602086016107ea565b91505092915050565b5f805f6060848603121561086f5761086e6106e1565b5b5f61087c86828701610708565b935050602084013567ffffffffffffffff81111561089d5761089c6106e5565b5b6108a98682870161082b565b92505060406108ba86828701610708565b9150509250925092565b5f602082840312156108d9576108d86106e1565b5b5f6108e684828501610708565b91505092915050565b5f81519050919050565b5f82825260208201905092915050565b5f5b8381101561092657808201518184015260208101905061090b565b5f8484015250505050565b5f61093b826108ef565b61094581856108f9565b9350610955818560208601610909565b61095e81610724565b840191505092915050565b610972816106e9565b82525050565b5f6040820190508181035f8301526109908185610931565b905061099f6020830184610969565b9392505050565b5f73ffffffffffffffffffffffffffffffffffffffff82169050919050565b5f6109cf826109a6565b9050919050565b6109df816109c5565b81146109e9575f80fd5b50565b5f813590506109fa816109d6565b92915050565b5f805f60608486031215610a1757610a166106e1565b5b5f610a24868287016109ec565b935050602084013567ffffffffffffffff811115610a4557610a446106e5565b5b610a518682870161082b565b9250506040610a6286828701610708565b9150509250925092565b5f60208284031215610a8157610a806106e1565b5b5f610a8e848285016109ec565b91505092915050565b5f8115159050919050565b610aab81610a97565b82525050565b5f602082019050610ac45f830184610aa2565b92915050565b610ad3816109c5565b82525050565b5f602082019050610aec5f830184610aca565b92915050565b7f4f6e6c792061646d696e2063616e20706572666f726d207468697320616374695f8201527f6f6e2e0000000000000000000000000000000000000000000000000000000000602082015250565b5f610b4c6023836108f9565b9150610b5782610af2565b604082019050919050565b5f6020820190508181035f830152610b7981610b40565b9050919050565b7f496e76616c69642070617469656e742049442e000000000000000000000000005f82015250565b5f610bb46013836108f9565b9150610bbf82610b80565b602082019050919050565b5f6020820190508181035f830152610be181610ba8565b9050919050565b7f4e487b71000000000000000000000000000000000000000000000000000000005f52603260045260245ffd5b7f4e487b71000000000000000000000000000000000000000000000000000000005f52602260045260245ffd5b5f6002820490506001821680610c5957607f821691505b602082108103610c6c57610c6b610c15565b5b50919050565b5f819050815f5260205f209050919050565b5f6020601f8301049050919050565b5f82821b905092915050565b5f60088302610cce7fffffffffffffffffffffffffffffffffffffffffffffffffffffffffffffffff82610c93565b610cd88683610c93565b95508019841693508086168417925050509392505050565b5f819050919050565b5f610d13610d0e610d09846106e9565b610cf0565b6106e9565b9050919050565b5f819050919050565b610d2c83610cf9565b610d40610d3882610d1a565b848454610c9f565b825550505050565b5f90565b610d54610d48565b610d5f818484610d23565b505050565b5b81811015610d8257610d775f82610d4c565b600181019050610d65565b5050565b601f821115610dc757610d9881610c72565b610da184610c84565b81016020851015610db0578190505b610dc4610dbc85610c84565b830182610d64565b50505b505050565b5f82821c905092915050565b5f610de75f1984600802610dcc565b1980831691505092915050565b5f610dff8383610dd8565b9150826002028217905092915050565b610e18826108ef565b67ffffffffffffffff811115610e3157610e30610734565b5b610e3b8254610c42565b610e46828285610d86565b5f60209050601f831160018114610e77575f8415610e65578287015190505b610e6f8582610df4565b865550610ed6565b601f198416610e8586610c72565b5f5b82811015610eac57848901518255600182019150602085019450602081019050610e87565b86831015610ec95784890151610ec5601f891682610dd8565b8355505b6001600288020188555050505b505050505050565b5f606082019050610ef15f830186610969565b8181036020830152610f038185610931565b9050610f126040830184610969565b949350505050565b7f50617469656e7420616c726561647920726567697374657265642e00000000005f82015250565b5f610f4e601b836108f9565b9150610f5982610f1a565b602082019050919050565b5f6020820190508181035f830152610f7b81610f42565b905091905056fea2646970667358221220d530d325046c8ce5600cfb80eda6178b541ec3ab3dd0072950c58364db9a860f64736f6c63430008150033",
  "immutableReferences": {},
  "source": "// SPDX-License-Identifier: MIT\r\npragma solidity ^0.8.19;\r\n\r\ncontract CancerPatientData {\r\n\r\n    address public admin;\r\n\r\n    constructor() {\r\n        admin = msg.sender; // The deployer of the contract becomes the admin\r\n    }\r\n\r\n    modifier onlyAdmin() {\r\n        require(msg.sender == admin, \"Only admin can perform this action.\");\r\n        _;\r\n    }\r\n\r\n    struct Patient {\r\n        string name;\r\n        uint256 age;\r\n    }\r\n\r\n    Patient[] public patients;\r\n\r\n    mapping(address => bool) public registeredPatients;\r\n\r\n    event PatientRegistered(string name, uint256 age);\r\n    event PatientUpdated(uint256 patientId, string name, uint256 age);\r\n\r\n    function registerPatient(address _patientAddress, string memory _name, uint256 _age) public onlyAdmin {\r\n        require(!registeredPatients[_patientAddress], \"Patient already registered.\");\r\n        patients.push(Patient(_name, _age));\r\n        registeredPatients[_patientAddress] = true;\r\n        emit PatientRegistered(_name, _age);\r\n    }\r\n\r\n    function updatePatient(uint256 _patientId, string memory _name, uint256 _age) public onlyAdmin {\r\n        require(_patientId < patients.length, \"Invalid patient ID.\");\r\n        patients[_patientId].name = _name;\r\n        patients[_patientId].age = _age;\r\n        emit PatientUpdated(_patientId, _name, _age);\r\n    }\r\n\r\n    function getPatient(uint256 _patientId) public view returns (string memory name, uint256 age) {\r\n        require(_patientId < patients.length, \"Invalid patient ID.\");\r\n        Patient memory patient = patients[_patientId];\r\n        return (patient.name, patient.age);\r\n    }\r\n}\r\n",
  "sourcePath": "C:\\Users\\ADMIN 2023\\cancer_patient_blockchain\\contracts\\CancerPatient.sol",
  "compiler": {
    "name": "solc",
    "version": "0.8.21+commit.d9974bed.Emscripten.clang"
  },
  "schemaVersion": "3.4.16",
  "updatedAt": "2024-06-22T11:32:04.540Z",
  "devdoc": {
    "kind": "dev",
    "methods": {},
    "version": 1
  },
  "userdoc": {
    "kind": "user",
    "methods": {},
    "version": 1
  }
}